:020000020000FC
:040000000C94340028
:040040000C94CC0050
:1000680008E00EBF0FEF0DBFD1E0C0E00FEF04B9FD
:1000780007B90AB93C983D9800E005B908B90BB929
:1000880000E005B5056005BD789400E000916E00BC
:10009800016000936E0000E000917C000066009310
:1000A8007C0000E000917A00076800937A0086D00F
:1000B800D0E0C0E001E0088302E0098304E00A839D
:1000C80060E090E010E0D0E0C0E0409A599162D042
:1000D80075D04098419A59915DD070D04198429A14
:1000E800599158D06BD04298613011F00C94670048
:1000F80093959F3009F403D060E00C94670090E07A
:1001080000E000917C00056000937C0000E0009115
:100118007A00006400937A0000E000917A0006FDFE
:100128000C949000000070917900753A20F47A35AB
:1001380028F00C94A30011E00C94A30012E0D0E086
:10014800C0E030E01030D9F0113021F0123039F031
:100158000C94B6000881000F08830C94B60008813F
:100168000695088360F4113011F0123029F001E08F
:10017800088388940C94C30000E80883889432307C
:1001880031F40C94A60033950881039508830895EB
:1001980061E018954BB157FB46F956FB47F955FBFB
:1001A80020F954FB21F953FB22F952FB23F951FBA7
:1001B80024F950FB25F94BB925B908955E985F9845
:1001C800289829982A982B982C982D980895088172
:0E01D8000695088308950881000F0883089596
:00000001FF
