:020000020000FC
:040000000C94340028
:040040000C94B80064
:1000680008E00EBF0FEF0DBFD1E0C0E00FEF04B9FD
:1000780007B90AB93C983D9800E005B908B90BB929
:1000880000E005B5056005BD789400E000916E00BC
:10009800016000936E0000E000917C000066009310
:1000A8007C0000E000917A00076800937A0072D023
:1000B800D0E0C0E001E0099300E8099360E090E037
:1000C80010E0D1E0C0E0409A599150D063D04098F8
:1000D800419A59914BD05ED04198613011F00C94FF
:1000E800650093959F3009F403D060E00C94650097
:1000F80090E000E000917C00056000937C0000E047
:1001080000917A00006400937A0000E000917A0080
:1001180006FD0C948900000070917900753A20F46E
:100128007A3528F00C949C0011E00C949C0012E0A5
:10013800D1E0C0E01030B9F0113021F0123029F0D0
:100148000C94AA0034D00C94AA002DD060F411307D
:1001580011F0123029F001E0088388940C94B7005C
:1001680000E808838894089561E018954BB157FB1F
:1001780046F956FB47F955FB20F954FB21F953FB87
:1001880022F952FB23F951FB24F950FB25F94BB90D
:1001980025B908955E985F98289829982A982B98E9
:1001A8002C982D980895088106950983089508814B
:0601B800000F0983089509
:00000001FF
