:020000020000FC
:040000000C94340028
:040040000C9492008A
:1000680008E00EBF0FEF0DBF0FEF10230FEF04B91D
:1000780007B90AB93C983D9815B918B91BB900E0F9
:1000880000912500056000932500789400E0009118
:100098006E00016000936E0000E000917C00006635
:1000A80000937C0000E000917A00076800937A00D2
:1000B80000E000917C00056000937C0000E0009166
:1000C8007A00006400937A0000E000917A0006FD4F
:1000D8000C946800000070917900072F00E00091EF
:1000E8007C00046000937C0000E000917A000064CA
:1000F80000937A0000E000917A0006FD0C947E00DF
:10010800000080917900082F409A0ED020D04098A6
:10011800419A0AD01CD041980C945C005D9A0FEF6C
:1001280003D015D05D9A189507FB46F906FB47F9E9
:1001380005FB20F904FB21F903FB22F902FB23F953
:1001480001FB24F900FB25F94BB925B908955E9800
:100158005F98289829982A982B982C982D98089574
:00000001FF
