:020000020000FC
:040000000C94340028
:1000680008E00EBF0FEF0DBF0FEF04B907B90AB9CB
:100078003C983D9800E005B908B90BB9409A5E9ADA
:100088005F9A289A299A2A9A2B9A2C9A2D9A5E98DE
:100098005F98289829982A982B982C982D984098FA
:1000A800419A5E9A5F9A289A299A2A9A2B9A2C9AA8
:1000B8002D9A5E985F98289829982A982B982C98BA
:1000C8002D984198429A5E9A5F9A289A299A2A9A74
:1000D8002B9A2C9A2D9A5E985F98289829982A9896
:1000E8002B982C982D984298439A5E9A5F9A289A52
:1000F800299A2A9A2B9A2C9A2D9A5E985F98289872
:1001080029982A982B982C982D9843985A9A5E9A51
:100118005F9A289A299A2A9A2B9A2C9A2D9A5E984D
:100128005F98289829982A982B982C982D985A984F
:100138005B9A5E9A5F9A289A299A2A9A2B9A2C9AFD
:100148002D9A5E985F98289829982A982B982C9829
:100158002D985B985C9A5E9A5F9A289A299A2A9AAF
:100168002B9A2C9A2D9A5E985F98289829982A9805
:100178002B982C982D985C985D9A5E9A5F9A289A8D
:10018800299A2A9A2B9A2C9A2D9A5E985F982898E1
:1001980029982A982B982C982D985D980C944200B1
:0201A8001895A8
:00000001FF
