:020000020000FC
:040000000C94340028
:040040000C94990083
:1000680008E00EBF0FEF0DBF0FEF10230FEF04B91D
:1000780007B90AB93C983D9815B918B91BB900E0F9
:1000880000912500056000932500789400E0009118
:100098006E00016000936E0000E000917C00006635
:1000A80000937C0000E000917A00076800937A00D2
:1000B80051D050E860E000E000917C0005600093BA
:1000C8007C0000E000917A00006400937A0000E070
:1000D80000917A0006FD0C946B0000007091790085
:1000E80000E000917C00046000937C0000E0009137
:1000F8007A00006400937A0000E000917A0006FD1F
:100108000C948000000080917900783860F1052F08
:10011800613019F00C94930000000FEF60E0409AF2
:1001280006D018D040980C945F0061E0189507FB42
:1001380046F906FB47F905FB20F904FB21F903FB07
:1001480022F902FB23F901FB24F900FB25F94BB93D
:1001580025B908955E985F98289829982A982B9829
:100168002C982D980895052F0695502F0895052F42
:06017800000F502F089556
:00000001FF
