:020000020000FC
:040000000C94340028
:040040000C943E01DD
:1000680008E00EBF0FEF0DBFD1E0C0E00FEF04B9FD
:1000780007B90AB93C983D9800E005B908B90BB929
:1000880000E005B5056005BD789400E000916E00BC
:10009800016000936E0000E000917C000066009310
:1000A8007C0000E000917A00076800937A00F9D09C
:1000B800D0E0C0E001E0088300E0098300E00A83A3
:1000C80000E00B8300E00C8300E00D8300E00E836A
:1000D80000E00F8360E090E010E023E0D0E0C0E0B3
:1000E800409A5991C9D0DDD04098419A5991C4D0CD
:1000F800D8D04198429A5991BFD0D3D04298439AC8
:100108005991BAD0CED043985A9A5991B5D0C9D0FE
:100118005A985B9A5991B0D0C4D05B985C9A59911F
:10012800ABD0BFD05C985D9A5991A6D0BAD05D98F3
:10013800613011F00C94720093959F3009F403D04C
:1001480060E00C94720090E000E000917C00056093
:1001580000937C0000E000917A00006400937A002C
:1001680000E000917A0006FD0C94B4000000709144
:10017800790000E000917C000460047F00937C001B
:1001880000E000917A00006400937A0000E000919A
:100198007A0006FD0C94CA00000080917900753A37
:1001A80040F47B3548F0853A50F48B3558F00C9480
:1001B800E70011E00C94E70012E00C94E70014E06B
:1001C8000C94E70018E0D0E0C0E030E040E01130E7
:1001D80041F0123059F0143019F1183061F00C94D4
:1001E80037010881000F08830C942A0108810695BD
:1001F80008830C942A01C73049F00881003011F4B3
:100208000C943701499308830C9437010881003016
:1002180011F40C9437014883C0E008830C9437012B
:10022800C03051F00881003011F40C943701488334
:10023800C15008830C9437010881003011F40C94E4
:1002480037014883C7E008830C94370160F4113004
:1002580011F0123029F001E0088388940C943701DA
:1002680000E808838894383021F0339509910C947C
:10027800EB00089561E018950BB157FB06F956FBA2
:1002880007F90BB905B155FB00F954FB01F953FB0C
:1002980002F952FB03F951FB04F950FB05F905B9C2
:1002A80008955E985F98289829982A982B982C98F2
:0402B8002D980895E0
:00000001FF
