:020000020000FC
:040000000C94340028
:040040000C94040117
:1000680008E00EBF0FEF0DBFD1E0C0E00FEF04B9FD
:1000780007B90AB93C983D9800E005B908B90BB929
:1000880000E005B5056005BD789400E000916E00BC
:10009800016000936E0000E000917C000066009310
:1000A8007C0000E000917A00076800937A00BFD0D6
:1000B800D0E0C0E000E0088300E0098300E00A83A4
:1000C80008E00B8300E00C8300E00D8300E00E8362
:1000D80000E00F8360E090E010E0D0E0C0E0409ADC
:1000E800599190D0A4D04098419A59918BD09FD0E3
:1000F8004198429A599186D09AD04298439A5991F8
:1001080081D095D043985A9A59917CD090D05A98DA
:100118005B9A599177D08BD05B985C9A599172D041
:1001280086D05C985D9A59916DD081D05D98613088
:1001380011F00C94710093959F3009F403D060E09E
:100148000C94710090E000E000917C000560009341
:100158007C0000E000917A00006400937A0000E0DF
:1001680000917A0006FD0C94B300000070917900AC
:1001780000E000917C00046000937C0000E00091A6
:100188007A00006400937A0000E000917A0006FD8E
:100198000C94C800000080917900753A30F47B35E2
:1001A80038F0853A8B350C94DD0011E00C94DD00B5
:1001B80012E0D0E0C0E030E01030D9F0113021F08A
:1001C800123039F00C94F0000881000F08830C9469
:1001D800F00008810695088360F4113011F01230A0
:1001E80029F001E0088388940C94FD0000E8088356
:1001F8008894383021F0339509910C94E0000895E3
:1002080061E018950BB157FB06F956FB07F90BB9D6
:1002180005B155FB00F954FB01F953FB02F952FBF8
:1002280003F951FB04F950FB05F905B908955E98E7
:100238005F98289829982A982B982C982D98089593
:00000001FF
