:020000020000FC
:040000000C94340028
:040040000C947200AA
:1000680008E00EBF0FEF0DBF0FEF10230FEF04B91D
:1000780007B90AB93C983D9815B918B91BB900E0F9
:1000880005B5056005BD789400E000916E0001603B
:1000980000936E0000E000917C00006600937C00F5
:1000A80000E000917A00076800937A002DD051E0B3
:1000B80060E090E0409A14D027D04098613011F069
:1000C8000C945E0093959A3009F403D060E00C9488
:1000D8005E0090E0539508955395089561E0189552
:1000E8004BB157FB46F956FB47F955FB20F954FB32
:1000F80021F953FB22F952FB23F951FB24F950FB58
:1001080025F94BB925B908955E985F9828982998DC
:100118002A982B982C982D980895052F0695502FDE
:0A0128000895052F000F502F0895D1
:00000001FF
