:020000020000FC
:040000000C94340028
:040040000C947000AC
:1000680008E00EBF0FEF0DBF0FEF10230FEF04B91D
:1000780007B90AB93C983D9815B918B91BB900E0F9
:1000880005B5056005BD789400E000916E0001603B
:1000980000936E0000E000917C00006600937C00F5
:1000A80000E000917A00076800937A002BD051E0B5
:1000B80060E090E0052F409A11D024D0409861303C
:1000C80011F00C945E0093959F3019F060E00C9449
:1000D8005E0090E05395089561E018954BB107FBD9
:1000E80046F906FB47F905FB20F904FB21F903FB58
:1000F80022F902FB23F901FB24F900FB25F94BB98E
:1001080025B908955E985F98289829982A982B9879
:100118002C982D980895052F0695502F0895052F92
:06012800000F502F0895A6
:00000001FF
