:020000020000FC
:040000000C94340028
:040040000C947800A4
:1000680008E00EBF0FEF0DBF0FEF10230FEF04B91D
:1000780007B90AB93C983D9815B918B91BB900E0F9
:1000880000912500056000932500789400E0009118
:100098006E00016000936E0000E000917C00006635
:1000A80000937C0000E000917A00076800937A00D2
:1000B80000E000917C00056000937C0000E0009166
:1000C8007A00006400937A0000E000917A0006FD4F
:1000D8000C946800000000917900502F409A05D0D8
:1000E80017D040980C945C00189557FB46F956FBBE
:1000F80047F955FB20F954FB21F953FB22F952FB30
:1001080023F951FB24F950FB25F94BB925B908957A
:100118005E985F98289829982A982B982C982D985B
:02012800089538
:00000001FF
