:020000020000FC
:040000000C94340028
:040040000C941E01FD
:1000680008E00EBF0FEF0DBFD1E0C0E00FEF04B9FD
:1000780007B90AB93C983D9800E005B908B90BB929
:1000880000E005B5056005BD789400E000916E00BC
:10009800016000936E0000E000917C000066009310
:1000A8007C0000E000917A00076800937A00D9D0BC
:1000B800D0E0C0E000E0088300E0098300E00A83A4
:1000C80008E00B8300E00C8300E00D8300E00E8362
:1000D80000E00F8360E090E010E023E0D0E0C0E0B3
:1000E800409A5991A9D0BDD04098419A5991A4D02D
:1000F800B8D04198429A59919FD0B3D04298439A28
:1001080059919AD0AED043985A9A599195D0A9D07E
:100118005A985B9A599190D0A4D05B985C9A59915F
:100128008BD09FD05C985D9A599186D09AD05D9873
:10013800613011F00C94720093959A3009F403D051
:1001480060E00C94720090E000E000917C00056093
:1001580000937C0000E000917A00006400937A002C
:1001680000E000917A0006FD0C94B4000000709144
:10017800790000E000917C00046000937C0000E0BE
:1001880000917A00006400937A0000E000917A0000
:1001980006FD0C94C900000080917900753A40F47E
:1001A8007B3548F0853A50F48B3558F00C94E600CE
:1001B80011E00C94E60012E00C94E60014E00C94B4
:1001C800E60018E0D0E0C0E030E040E0103059F13F
:1001D800113041F0123059F01430C1F0183061F08C
:1001E8000C940A010881000F08830C940A01088105
:1001F800069508830C940A010991088343954730B2
:10020800D8F30881C75008830C940A0160F41130B0
:1002180011F0123029F001E0088388940C9417013A
:1002280000E808838894383021F0339509910C94BC
:10023800EA00089561E018950BB157FB06F956FBE3
:1002480007F90BB905B155FB00F954FB01F953FB4C
:1002580002F952FB03F951FB04F950FB05F905B902
:1002680008955E985F98289829982A982B982C9832
:040278002D98089520
:00000001FF
