:020000020000FC
:040000000C94340028
:040040000C941B0100
:1000680008E00EBF0FEF0DBFD1E0C0E00FEF04B9FD
:1000780007B90AB93C983D9800E005B908B90BB929
:1000880000E005B5056005BD789400E000916E00BC
:10009800016000936E0000E000917C000066009310
:1000A8007C0000E000917A00076800937A00D6D0BF
:1000B800D0E0C0E000E0088300E0098300E00A83A4
:1000C80008E00B8300E00C8300E00D8300E00E8362
:1000D80000E00F8360E090E010E023E0D0E0C0E0B3
:1000E800409A5991A6D0BAD04098419A5991A1D036
:1000F800B5D04198429A59919CD0B0D04298439A31
:10010800599197D0ABD043985A9A599192D0A6D08A
:100118005A985B9A59918DD0A1D05B985C9A599165
:1001280088D09CD05C985D9A599183D097D05D987F
:10013800613011F00C94720093959F3009F403D04C
:1001480060E00C94720090E000E000917C00056093
:1001580000937C0000E000917A00006400937A002C
:1001680000E000917A0006FD0C94B4000000709144
:10017800790000E000917C00046000937C0000E0BE
:1001880000917A00006400937A0000E000917A0000
:1001980006FD0C94C900000080917900753A40F47E
:1001A8007B3548F0853A68F48B3510F00C94E600FE
:1001B80011E00C94E60012E00C94E60014E00C94B4
:1001C800E60018E0D0E0C0E030E0103049F111302E
:1001D80041F0123059F0143071F01830A1F00C943D
:1001E80007010881000F08830C9407010881069510
:1001F80008830C940701C20F0881C39508832395CF
:10020800C21B0C94070160F4113011F0123029F070
:1002180001E0088388940C94140100E8088388940A
:10022800383021F0339509910C94E900089561E084
:1002380018950BB157FB06F956FB07F90BB905B131
:1002480055FB00F954FB01F953FB02F952FB03F982
:1002580051FB04F950FB05F905B908955E985F98BC
:0E026800289829982A982B982C982D9808955C
:00000001FF
