:020000020000FC
:040000000C94340028
:040040000C9491008B
:1000680008E00EBF0FEF0DBF0FEF10230FEF04B91D
:1000780007B90AB93C983D9815B918B91BB900E0F9
:1000880005B5056005BD789400E000916E0001603B
:1000980000936E0000E000917C00006600937C00F5
:1000A80000E000917A00076800937A004AD050E88F
:1000B80060E090E000E000917C00056000937C0027
:1000C80000E000917A00006400937A0000E000915B
:1000D8007A0006FD0C946A0000007091790000E037
:1000E80000917C00046000937C0000E000917A009D
:1000F800006400937A0000E000917A0006FD0C94F9
:100108007F00000080917900783820F1052F409A0F
:1001180005D017D040980C945E00189507FB46F957
:1001280006FB47F905FB20F904FB21F903FB22F93B
:1001380002FB23F901FB24F900FB25F94BB925B98A
:1001480008955E985F98289829982A982B982C9853
:100158002D980895052F0695502F0895052F000F07
:04016800502F089577
:00000001FF
