:020000020000FC
:040000000C94340028
:040040000C941A0101
:1000680008E00EBF0FEF0DBFD1E0C0E00FEF04B9FD
:1000780007B90AB93C983D9800E005B908B90BB929
:1000880000E005B5056005BD789400E000916E00BC
:10009800016000936E0000E000917C000066009310
:1000A8007C0000E000917A00076800937A00D5D0C0
:1000B800D0E0C0E000E0088300E0098300E00A83A4
:1000C80008E00B8300E00C8300E00D8300E00E8362
:1000D80000E00F8360E090E010E023E0D0E0C0E0B3
:1000E800409A5991A5D0B9D04098419A5991A0D039
:1000F800B4D04198429A59919BD0AFD04298439A34
:10010800599196D0AAD043985A9A599191D0A5D08E
:100118005A985B9A59918CD0A0D05B985C9A599167
:1001280087D09BD05C985D9A599182D096D05D9883
:10013800613011F00C94720093959A3009F403D051
:1001480060E00C94720090E000E000917C00056093
:1001580000937C0000E000917A00006400937A002C
:1001680000E000917A0006FD0C94B4000000709144
:10017800790000E000917C000460047F00937C001B
:1001880000E000917A00006400937A0000E000919A
:100198007A0006FD0C94CA00000080917900753A37
:1001A80040F47B3548F0853A50F48B3558F00C9480
:1001B800E70011E00C94E70012E00C94E70014E06B
:1001C8000C94E70018E0D0E0C0E030E040E01030E8
:1001D80031F1113041F0123059F0143099F01830E3
:1001E80061F00C9406010881000F08830C94060145
:1001F8000881069508830C940601088108E00883A5
:100208000C94130160F4113011F0123029F001E060
:10021800088388940C94130100E808838894383084
:1002280021F0339509910C94EB00089561E018953D
:100238000BB157FB06F956FB07F90BB905B155FB8E
:1002480000F954FB01F953FB02F952FB03F951FB86
:1002580004F950FB05F905B908955E985F98289848
:0C02680029982A982B982C982D9808951E
:00000001FF
