:020000020000FC
:040000000C94340028
:040040000C94A30079
:1000680008E00EBF0FEF0DBF0FEF0FEF04B907B990
:100078000AB93C983D9800E005B908B90BB900E009
:1000880005B5056005BD789400E000916E0001603B
:1000980000936E0000E000917C00006600937C00F5
:1000A80000E000917A00076800937A005ED051E082
:1000B80060E090E0409A45D058D04098613011F007
:1000C8000C945E0093959F3009F403D060E00C9483
:1000D8005E0090E000E000917C00056000937C00E9
:1000E80000E000917A00006400937A0000E000913B
:1000F8007A0006FD0C947A00000070917900753A38
:1001080020F47A3528F00C948D0011E00C948D00C1
:1001180012E0113021F0123029F00C94970032D0FF
:100128000C9497002BD050F4113011F0123021F0BC
:1001380051E088940C94A20050E88894089561E0F6
:1001480018954BB157FB46F956FB47F955FB20F973
:1001580054FB21F953FB22F952FB23F951FB24F9F3
:1001680050FB25F94BB925B908955E985F982898F2
:1001780029982A982B982C982D980895052F06953C
:0C018800502F0895052F000F502F0895F0
:00000001FF
