:020000020000FC
:040000000C94340028
:040040000C94FA0022
:1000680008E00EBF0FEF0DBF0FEF10230FEF04B91D
:1000780007B90AB93C983D9815B918B91BB900E0F9
:1000880010E005E010912500012B00932500009158
:100098002500056000932500789400E010E001E059
:1000A80010916E00012B00936E0000916E000160AC
:1000B80000936E0000917C00006600937C00009124
:1000C8007A00076800937A00409A5E9A5F9A289AA5
:1000D800299A2A9A2B9A2C9A2D9A5E985F98289892
:1000E80029982A982B982C982D984098419A5E9A8E
:1000F8005F9A289A299A2A9A2B9A2C9A2D9A5E986E
:100108005F98289829982A982B982C982D98419888
:10011800429A5E9A5F9A289A299A2A9A2B9A2C9A36
:100128002D9A5E985F98289829982A982B982C9849
:100138002D984298439A5E9A5F9A289A299A2A9A01
:100148002B9A2C9A2D9A5E985F98289829982A9825
:100158002B982C982D9843985A9A5E9A5F9A289AC9
:10016800299A2A9A2B9A2C9A2D9A5E985F98289801
:1001780029982A982B982C982D985A985B9A5E9AC9
:100188005F9A289A299A2A9A2B9A2C9A2D9A5E98DD
:100198005F98289829982A982B982C982D985B98DE
:1001A8005C9A5E9A5F9A289A299A2A9A2B9A2C9A8C
:1001B8002D9A5E985F98289829982A982B982C98B9
:1001C8002D985C985D9A5E9A5F9A289A299A2A9A3D
:1001D8002B9A2C9A2D9A5E985F98289829982A9895
:0E01E8002B982C982D985D980C946800189513
:00000001FF
