:020000020000FC
:040000000C94340028
:040040000C948F008D
:1000680008E00EBF0FEF0DBF0FEF10230FEF04B91D
:1000780007B90AB93C983D9815B918B91BB900E0F9
:1000880000912500056000932500789400E0009118
:100098006E00016000936E0000E000917C00006635
:1000A80000937C0000E000917A00076800937A00D2
:1000B80000E000917C00056000937C0000E0009166
:1000C8007A00006400937A0000E000917A0006FD4F
:1000D8000C946800000000917900502F00E0009116
:1000E8007C00046000937C0000E000917A000064CA
:1000F80000937A0000E000917A0006FD0C947E00DF
:10010800000000917900602F419A062F05D017D082
:1001180041980C945C00189507FB46F906FB47F9D3
:1001280005FB20F904FB21F903FB22F902FB23F963
:1001380001FB24F900FB25F94BB925B908955E9810
:100148005F98289829982A982B982C982D98089584
:00000001FF
