:020000020000FC
:040000000C94340028
:040040000C94EC0030
:1000680008E00EBF0FEF0DBFD1E0C0E00FEF04B9FD
:1000780007B90AB93C983D9800E005B908B90BB929
:1000880000E005B5056005BD789400E000916E00BC
:10009800016000936E0000E000917C000066009310
:1000A8007C0000E000917A00076800937A00A6D0EF
:1000B800D0E0C0E001E0088302E0098304E00A839D
:1000C80008E00B8300E10C8300E20D8300E40E835B
:1000D80000E80F8360E090E010E0D0E0C0E0409AD4
:1000E800599178D08BD04098419A599173D086D045
:1000F8004198429A59916ED081D04298439A599129
:1001080069D07CD043985A9A599164D077D05B9A39
:10011800599160D073D05B985C9A59915BD06ED03E
:100128005C985D9A599156D069D05D98613011F00C
:100138000C94710093959F3009F403D060E00C94FF
:10014800710090E000E000917C00056000937C0065
:1001580000E000917A00006400937A0000E00091CA
:100168007A0006FD0C94B200000070917900753A8F
:1001780020F47A3528F00C94C50011E00C94C500E1
:1001880012E0D0E0C0E030E01030D9F0113021F0BA
:10019800123039F00C94D8000881000F08830C94B1
:1001A800D80008810695088360F4113011F01230E8
:1001B80029F001E0088388940C94E50000E808839E
:1001C8008894333021F0339509910C94C800089530
:1001D80061E018954BB157FB46F956FB47F955FBBB
:1001E80020F954FB21F953FB22F952FB23F951FB67
:1001F80024F950FB25F94BB925B908955E985F9805
:0E020800289829982A982B982C982D980895BC
:00000001FF
